:100000000A128A15A52C00308A000408840A820787
:1000100000345034723465347334733420346134B2
:100020006E3479342034633468346134723461342A
:1000300063347434653472340D340A340A34003451
:10004000573469344634693420344D346F34623463
:1000500069346C346534203452346F3462346F3414
:1000600074340D340A340034443420342D342034B4
:1000700052346F34743461347434653420345234FF
:1000800069346734683474340D340A3400344134CC
:1000900020342D34203452346F3474346134743449
:1000A000653420344C346534663474340D340A3489
:1000B0000034573420342D34203446346F347234B5
:1000C00077346134723464340D340A3400342034AB
:1000D00058346234653465342034573469344634D6
:1000E00069340D340A340034533420342D34203430
:1000F000533474346F3470340D340A340A34003499
:100100005234653461346434793421340D340A3422
:100110000A340034533474346F3470340D340A3478
:020120000034A9
:10012400F200A528720884000A128A1103200A1218
:100134008A110A128A15A9240A128A110130F100BF
:100144007108F207A528720884000A128A11032094
:100154000A128A110038031DB028B1289428B22845
:10016400080083120313AD010A302D02031CBB28BF
:10017400BC28BE28CD28CD282D08233E8400831317
:1001840080010130A0002008AD070A302D02031CB5
:10019400CC28CD28BE28AD01CF287A0883120313BA
:1001A400A000A1012008F0002108F1007908F30162
:1001B400F3077808F201F2070A128A155B250A127E
:1001C4008A11700883120313A2002D08233E8400B1
:1001D4002208831380000130A0002008AD077A08AC
:1001E400A000A1012008F0002108F1007908F30122
:1001F400F3077808F201F2070A128A159E250A12FB
:100204008A117108F901F9077008F801F8077908EB
:100214007804031D0E290F29CF2810297B08831287
:100224000313A0002008AE00AE08031D1A291B29E1
:100234001D294D294D292E08FF3E233E84000A30F6
:100244008313000203182729282934292E08FF3E86
:10025400233E84000008303E0A128A15A9240A129B
:100264008A114329831203132E08FF3E233E840080
:1002740083130008373E0A128A15A9240A128A1128
:100284004329013083120313AE02AE08031D4B2928
:100294004C291D294D29080083120313AE00503048
:1002A400AB002B08AD00AE1F582959296B2906163F
:1002B4008612FF30AB002B08F0002E080A128A15B4
:1002C400C7240A128A1183120313AC002C08AF004E
:1002D40086292E08803A7F3E031C712972297929C8
:1002E400061286162E08AB002B08AF008629AE082E
:1002F400031D7D297E298629061286122E08AB004D
:100304002B08AF00862986292F082D0203188B2974
:100314008C2991292D08AB002B08AF009129E830D6
:10032400A6000330A7002F08AB00AC012B08A800DF
:100334002C08A9000A128A15A6260A128A11831209
:100344000313AA1FA629A729B92906158611FF3068
:10035400AB002B08F0002A080A128A15C7240A12D7
:100364008A1183120313AC002C08AF00D4292A0885
:10037400803A7F3E031CBF29C029C7290611861570
:100384002A08AB002B08AF00D429AA08031DCB29E7
:10039400CC29D429061186112A08AB002B08AF00FA
:1003A400D429D4292F082D020318D929DA29DF29C1
:1003B4002D08AB002B08AF00DF29E830A60003307E
:1003C400A7002F08AB00AC012B08A8002C08A9003B
:1003D4000A128A153B260A128A1108008312031393
:1003E400A101F31FF629F729042AF009F109F209FA
:1003F400F309F00A0319F10A0319F20A0319F30ABB
:10040400A101A10AF71F072A082A182AF409F509E5
:10041400F609F709F40A0319F50A0319F60A031988
:10042400F70A0130F8007808A106182A0030A50060
:100434000030A4000030A3000030A200730872044E
:10044400710470040319272A282A7B2AA001A00A10
:10045400392A0130F8000310F00DF10DF20DF30DFF
:10046400F80B2D2A0130F8007808A007392AF31F69
:100474003C2A3D2A2B2A3F2A3F2A0130F800031048
:10048400A20DA30DA40DA50DF80B412A7308770244
:10049400031D562A72087602031D562A7108750236
:1004A400031D562A70087402031C592A5A2A6A2A00
:1004B4007008F4027108031C710FF5027208031C22
:1004C400720FF6027308031C730FF70222146A2AD0
:1004D40001300310F30CF20CF10CF00CFF3E031D81
:1004E4006B2A0130A002031D782A792A3F2A7B2A2D
:1004F4007B2A2108031D7F2A8B2AA209A309A409A8
:10050400A509A20A0319A30A0319A40A0319A50A2F
:100514008B2A2508F3002408F2002308F10022089E
:10052400F000942A0800780883120313A0007908C5
:10053400A1007A08A2000310210D220DA3002308B4
:10054400A900A908031DA72AA82AB22A0030FB0083
:100554000030FA000030F9000030F8003A2B3A2B52
:100564007808A0007908A1007A08A20017300310C7
:10057400A20CA10CA00CFF3E031DB92A2008A30065
:100584002308A400F917FF30F805FF30F9050030FF
:10059400FA057808A5007908A6007A08A700A8013A
:1005A4008E30A902A91FD72AD82AFD2A2908803A01
:1005B4008F3E0318DE2ADF2AEA2A0030FB000030CF
:1005C400FA000030F9000030F8003A2B3A2BEA2AFE
:1005D40001300310A80CA70CA60CA50CFF3E031DAC
:1005E400EB2A0130A0002008A907031DFA2AFB2AE0
:1005F400EA2A212B212B18302902031C022B032B5E
:100604001A2B0030FB000030FA000030F9000030F3
:10061400F8003A2B3A2B1A2B0130A0000310A50D39
:10062400A60DA70DA80DA00B102B0130A9021A2BA3
:10063400A908031D1E2B1F2B0E2B212B212B240855
:10064400031D252B312BA509A609A709A809A50A6D
:100654000319A60A0319A70A0319A80A312B2808A3
:10066400FB002708FA002608F9002508F8003A2BB1
:100674000800831203133108B4003208B5003308AC
:10068400B6000310350D360DB7003708BC00BC08A2
:10069400031D4D2B4E2B562B0030AE000030AF0007
:1006A4000030B000022C022C2E08B4002F08B50034
:1006B4003008B6000310350D360DB7003708BD00FD
:1006C400BD08031D662B672B6F2B0030AE00003076
:1006D400AF000030B000022C022C0030B900003012
:1006E400BA000030BB0089303D07B4003408BC02B6
:1006F4003108B4003208B5003308B60010300310D6
:10070400B60CB50CB40CFF3E031D812B3408B700A6
:100714003708BD002E08B4002F08B5003008B60015
:1007240010300310B60CB50CB40CFF3E031D932B14
:100734003408B7003708BD068030B4003408BD055E
:10074400B217FF30B105FF30B2050030B305AF1763
:10075400FF30AE05FF30AF050030B0051830B400EF
:100764003408B800B52B01300310B90DBA0DBB0D18
:10077400FF3E031DB62B30083302031DC72B2F0881
:100784003202031DC72B2E083102031CCA2BCB2BAC
:10079400D72B2E08B1022F08031C2F0FB2023008EA
:1007A400031C300AB3023914D72B01300310B10DE6
:1007B400B20DB30DFF3E031DD82B0130B802031D4B
:1007C400E42BE52BB52BE62B3908F0003A08F100B1
:1007D4003B08F2003C08B4003408F3003D08B500BF
:1007E4003508F4000A128A1585270A128A1170083E
:1007F40083120313AE007108AF007208B000022C1C
:10080400080083160313981618138312031318137E
:100814001816981700304E02031D1A2C00304D0292
:10082400031D1A2C23304C02031D1A2C29304B02B1
:10083400031C1D2C1E2C812C831603131815243025
:1008440083120313B100F430B2004A30B3004E08EF
:10085400AD004D08AC004C08AB004B08AA000A12CE
:100864008A1523250A128A11831203132A08AE005B
:100874002B08AF002C08B0000A128A113B230A127D
:100884008A11831203132E08CF002F08D0003008DA
:10089400D1004F08B1005008B2005108B300003035
:1008A400AE008030AF004130B0000A128A113B2301
:1008B4000A128A11831203132E08C1002F08C200E2
:1008C4003008C3000030BE000030BF00BF30C0009D
:1008D4000A128A11F9240A128A11831203133E0898
:1008E400F8003F08F9004008FA000A128A1195221C
:1008F4000A128A117808831603139900F82C003021
:1009040083124E02031D902C00304D02031D902CC7
:1009140023304C02031D902C28304B020318932CD7
:10092400942CF82C83160313181124308312031308
:10093400B100F430B2004A30B3004E08AD004D08A7
:10094400AC004C08AB004B08AA000A128A152325F8
:100954000A128A11831203132A08AE002B08AF006F
:100964002C08B0000A128A113B230A128A1183123E
:1009740003132E08CF002F08D0003008D1004F08F1
:10098400B1005008B2005108B3000030AE0080300E
:10099400AF004230B0000A128A113B230A128A11B6
:1009A400831203132E08C1002F08C2003008C300AD
:1009B4000030BE000030BF00BF30C0000A128A11F0
:1009C400F9240A128A11831203133E08F8003F081F
:1009D400F9004008FA000A128A1195220A128A11B3
:1009E4007808831603139900F82CF82C0800831256
:1009F40003133E08C4003F08C5004008C6000310A6
:100A0400450D460DC7004708CA004108C400420806
:100A1400C5004308C6000310450D460DC70047082E
:100A2400C9004A08031D172D282D49084A02031836
:100A34001C2D1D2D302D4A03FF3A4907C4001930DF
:100A44004402031C262D272D302D282D4108BE00DD
:100A54004208BF004308C0003D2E3D2E4908031D37
:100A6400342D442D4A0849020318392D3A2D452DB9
:100A74004903FF3A4A07C40019304402031C432DBA
:100A8400442D452D3D2E0630C4004408C800C01F27
:100A94004C2D4D2D4E2DC817C31F512D522D532DA6
:100AA4004817BF17FF30BE05FF30BF050030C00533
:100AB400C217FF30C105FF30C2050030C305490825
:100AC4004A020318662D672D982D682D01300310F6
:100AD400C10DC20DC30DFF3E031D692D0130C902B6
:100AE40049084A060319772D782D902D0130C80244
:100AF40048080739031D7F2D802D682D902D902DDA
:100B0400902D01300310C00CBF0CBE0CFF3E031D22
:100B1400842D0130C4004408CA07902D4A084906B0
:100B2400031D952D962D832DCF2DCF2D4A084902D7
:100B340003189D2D9E2DCF2D9F2D01300310BE0D2A
:100B4400BF0DC00DFF3E031DA02D0130CA02490890
:100B54004A060319AE2DAF2DC72D0130C80248082F
:100B64000739031DB62DB72D9F2DC72DC72DC72DB2
:100B740001300310C30CC20CC10CFF3E031DBB2D7E
:100B84000130C4004408C907C72D4A084906031D9B
:100B9400CC2DCD2DBA2DCF2DCF2DC81FD22DD32D99
:100BA400E42DFF30BE06FF30BF06FF30C006013023
:100BB400BE07003003180130BF07003003180130AE
:100BC400C007E42D481FE72DE82DF92DFF30C1069D
:100BD400FF30C206FF30C3060130C10700300318DE
:100BE4000130C207003003180130C307F92DC801D2
:100BF4003E08C1073F08031103183F0A0319032ED7
:100C0400C207400803110318400A03190A2EC30738
:100C1400C31F0D2E0E2E212EFF30C106FF30C2063B
:100C2400FF30C3060130C107003003180130C2078A
:100C3400003003180130C307C801C80A212E410837
:100C4400F0004208F1004308F2004A08C4004408D6
:100C5400F3004808C5004508F4000A128A158527E0
:100C64000A128A11700883120313BE007108BF00B0
:100C74007208C0003D2E080083120313D6010A1225
:100C84008A15DF240A128A11003083120313CE005E
:100C94000030CD002530CC008030CB000A128A1100
:100CA40003240A128A113230F0000030F1000230BD
:100CB4000A128A15EB250A128A11602E8312031375
:100CC4000618652E662EBB2F3230F0000030F1007E
:100CD40001300A128A15EB250A128A1118300A12F9
:100CE4008A1192200A128A1151300A128A11922012
:100CF4000A128A113F300A128A1192200A128A11AA
:100D04002C300A128A1192200A128A116C300A12AB
:100D14008A1192200A128A11CE3083120313D20050
:100D24005208AA0032300A128A114E210A128A117C
:100D3400033083120313D4000830D3007830D20078
:100D4400D20BA22ED30BA22ED40BA22E83120313EA
:100D5400AA0100300A128A114E210A128A110330A4
:100D640083120313D4000830D3007830D200D20B9E
:100D7400B92ED30BB92ED40BB92E323083120313F0
:100D8400D2005208AA00CE300A128A114E210A1249
:100D94008A11053083120313D4000F30D300F430CA
:100DA400D200D20BD32ED30BD32ED40BD32E83123B
:100DB4000313AA0100300A128A114E210A128A1161
:100DC400033083120313D4000830D3007830D200E8
:100DD400D20BEA2ED30BEA2ED40BEA2ECE3083129A
:100DE4000313D2005208AA0032300A128A114E218B
:100DF4000A128A11033083120313D4000830D3007B
:100E04007830D200D20B042FD30B042FD40B042F31
:100E140083120313AA0100300A128A114E210A1206
:100E24008A11033083120313D4000830D3007830BE
:100E3400D200D20B1B2FD30B1B2FD40B1B2F7830BC
:100E44000A128A1192200A128A11282F0A128A156C
:100E5400B5240A128A1183120313D2005208D70050
:100E64005708773A0319372F382F3F2F5708573A27
:100E7400031D3D2F3E2F522F3F2F55300A128A114A
:100E840092200A128A113C3083120313D2005208B2
:100E9400AA003C300A128A114E210A128A11282F04
:100EA400831203135708613A0319592F5A2F612FDC
:100EB4005708413A031D5F2F602F742F612F433071
:100EC4000A128A1192200A128A11323083120313F1
:100ED400D2005208AA00CE300A128A114E210A12F8
:100EE4008A11282F831203135708643A03197B2F9E
:100EF4007C2F832F5708443A031D812F822F962F6E
:100F0400832F30300A128A1192200A128A11CE30AD
:100F140083120313D2005208AA0032300A128A1133
:100F24004E210A128A11282F831203135708733A89
:100F340003199D2F9E2FA52F5708533A031DA32F46
:100F4400A42F282FA52F82300A128A1192200A1268
:100F54008A1183120313AA0100300A128A114E2146
:100F64000A128A11282F282F282F282F282F282FBC
:100F7400602E8618BE2FBF2F602E5608D200D301D4
:100F84005208F8005308F9000A30D4005408FA0053
:100F94000230D5005508FB000A128A11B3200A1248
:100FA4008A11013083120313D2005208D6075F302E
:100FB4000A128A1192200A128A1101300A128A1125
:100FC40092200A128A110A128A15B5240A128A1169
:100FD40083120313D2005208D7003230F0000030DD
:100FE400F10001300A128A15EB250A128A11602ECB
:0C0FF400602E602E602E0A128A11002868
:10194A0083010A128A113E2EF000AB2C8312031374
:10195A000C1EB02CB12CAB2CB22C700899000800CC
:10196A0083120313981CBA2CBB2CBF2C18121816FE
:10197A00BF2CBF2C8C1EC22CC32CBF2CC42C1A0803
:10198A00C62C0800F300F201731CCC2CCD2CD22CEF
:10199A007008F1007108F207D22C0310F00D031041
:1019AA00F30CF308031DDA2CDB2CC92CDC2C72088F
:1019BA00DE2C0800831603130F178F160F168316D3
:1019CA0003178801890183120313850186018701A0
:1019DA00880189018316031385010330860080304C
:1019EA008700880189010800F401F501FC2C701CAC
:1019FA00FF2C002D062D7208F4070318F50A730848
:101A0A00F50701300310F20DF30DFF3E031D072DFC
:101A1A0001300310F10CF00CFF3E031D0E2D71086E
:101A2A007004031D192D1A2DFC2C1B2D7508F101AC
:101A3A00F1077408F001F007222D08008E30FC002F
:101A4A007C08FD00382D0130031083120313AD0CFE
:101A5A00AC0CAB0CAA0CFF3E031D292D0130FC0077
:101A6A007C08FD07382DFF30831203132D05031D53
:101A7A003F2D402D282D412D2A08F0002B08F1007A
:101A8A002C08F2007D08FC007C08F300F4010A121D
:101A9A008A1585270A128A15700883120313AA0069
:101AAA007108AB007208AC005A2D08007108700466
:101ABA000319602D612D962DF501F50A702D01305F
:101ACA000310F00DF10DFF3E031D652D0130F400EA
:101ADA007408F507702DF11F732D742D642D762D62
:101AEA00762D71087302031D7C2D70087202031C87
:101AFA007F2D802D872D7008F2027108031CF303D5
:101B0A00F302872D01300310F10CF00CFF3E031D88
:101B1A00882D0130F502031D932D942D762D962DD7
:101B2A00962D7308F101F1077208F001F0079D2D57
:101B3A000800F501F601710870040319A52DA62DF8
:101B4A00E32DF701F70AB52D01300310F00DF10D61
:101B5A00FF3E031DAA2D0130F4007408F707B52DC6
:101B6A00F11FB82DB92DA92DBB2DBB2D01300310A6
:101B7A00F50DF60DFF3E031DBC2D71087302031D02
:101B8A00C82D70087202031CCB2DCC2DD42D7008E1
:101B9A00F2027108031CF303F3027514D42D013009
:101BAA000310F10CF00CFF3E031DD52D0130F70296
:101BBA00031DE02DE12DBB2DE32DE32D7608F10168
:101BCA00F1077508F001F007EA2D0800F400F4089F
:101BDA00031DF02DF12DF32D3A2E3A2E8312031305
:101BEA008617F501F601082E0330F3009730F2004C
:101BFA00F20BFD2DF30BFD2D022E0130F507031814
:101C0A00F60A0030F60771087602031D0E2E7008D8
:101C1A007502031C112E122EF92D8312031386133B
:101C2A00F501F601272E0330F3009730F200F20B8C
:101C3A001C2EF30B1C2E212E0130F5070318F60A71
:101C4A000030F60771087602031D2D2E7008750202
:101C5A00031C302E312E182E322E0130F402F408D5
:101C6A00031D382E392EF32D3A2E08000730831221
:101C7A00031392000C3097002608F0002708F100A1
:101C8A000030F11BFF30F200F3000030F7000130A2
:101C9A00F600E830F5004830F4000A128A11F02103
:101CAA000A128A157008FF3E831603139200193030
:101CBA00F6000030F7001208013EF0000030031869
:101CCA000130F100831203132908F301F3072808EE
:101CDA00F201F2070A128A15F9240A128A15710802
:101CEA00F901F9077008F801F8070A128A1511278D
:101CFA000A128A157708FD01FD077608FC01FC0720
:101D0A000430F6000030F7007D08F901F9077C0875
:101D1A00F801F8070A128A1511270A128A15760895
:101D2A008312031395007C080339FB000430031067
:101D3A00FB0DFF3E031D9C2E1708CF397B0497002D
:101D4A00080007308312031392000C309D00260806
:101D5A00F0002708F1000030F11BFF30F200F30019
:101D6A000030F7000130F600E830F5004830F400A2
:101D7A000A128A11F0210A128A157008FF3E831688
:101D8A00031392001930F6000030F7001208013EE2
:101D9A00F000003003180130F10083120313290800
:101DAA00F301F3072808F201F2070A128A15F92447
:101DBA000A128A157108F901F9077008F801F8077B
:101DCA000A128A1511270A128A157708FD01FD07DA
:101DDA007608FC01FC070430F6000030F7007D08A5
:101DEA00F901F9077C08F801F8070A128A15112780
:101DFA000A128A157608831203139B007C0803399A
:101E0A00FB0004300310FB0DFF3E031D072F1D08C6
:101E1A00CF397B049D00080083120313A101F71F29
:101E2A00172F182F202FF609F709F60A0319F70AB0
:101E3A00A101A10A202FF91F232F242F2E2FF809E1
:101E4A00F909F80A0319F90A0130FA007A08A10611
:101E5A002E2FA201A301770876040319352F362FF6
:101E6A00732FA001A00A452F01300310F60DF70DBC
:101E7A00FF3E031D3A2F0130FA007A08A007452FCA
:101E8A00F71F482F492F392F4B2F4B2F01300310A3
:101E9A00A20DA30DFF3E031D4C2F77087902031DE7
:101EAA00582F76087802031C5B2F5C2F642F760864
:101EBA00F8027708031CF903F9022214642F01308F
:101ECA000310F70CF60CFF3E031D652F0130A0022C
:101EDA00031D702F712F4B2F732F732F2108031D92
:101EEA00772F7D2FA209A309A20A0319A30A7D2F1E
:101EFA002308F701F7072208F601F607842F0800DE
:101F0A007308031D892F912F720871047004031D31
:101F1A008F2F902FA72F912F0030F0000030F10063
:101F2A000030F200FF2FFF2FA72F0130F5007508B0
:101F3A00F30701300310F20CF10CF00CFF3E031D05
:101F4A009F2FA72FFE307205031DAC2FAD2F9A2F9E
:101F5A00C52FC52F0130F5007508F3070130F007CA
:101F6A00003003180130F107003003180130F2077E
:101F7A0001300310F20CF10CF00CFF3E031DBE2FD2
:101F8A00FF307205031DCA2FCB2FAF2FD82FD82FA2
:101F9A000130F30201300310F00DF10DF20DFF3E96
:101FAA00031DD02FD82FF11FDB2FDC2FCD2F731855
:101FBA00DF2FE02FE62FFF30F0057F30F105FF30ED
:101FCA00F2050310F30C7308F500F601F70110305F
:101FDA000310F50DF60DF70DFF3E031DED2F7508E5
:101FEA00F0047608F1047708F2047408031DFE2F42
:061FFA00FF2FF2170800A2
:02400E00E4E0EC
:00000001FF
