:100000000A128A11FC2F00308A000408840A820731
:100010000034203420342034203420342034203460
:100020002034003447346F342034203420342034DA
:100030002034203400345434753472346E34203417
:100040002034203420340034533474346F3470340A
:10005000203420342034203400344C346534663469
:100060007434203420342034203400345234693441
:1000700067346834743420342034203400344D34F0
:10008000433434343034413420342B34203400347D
:1000900046346F34723477346134723464342034CB
:1000A00000344234613463346B34773461347234F5
:1000B00064340034583462346534653457346934F8
:0600C000463469340034EF
:1000CE00F400F40803190800831203138617F501D0
:1000DE00F60171087602031D762870087502031862
:1000EE0088280330F3009730F200F20B7C28F30BD4
:1000FE007C2881280130F5070318F60A0030F60730
:10010E007028831203138613F501F6017108760227
:10011E00031D9328700875020318A5280330F300F9
:10012E009730F200F20B9928F30B99289E28013094
:10013E00F5070318F60A0030F6078D280130F40291
:10014E0068283430F400F130F300F30BAC28F40BD4
:10015E00AC28B1283030F3007308F00000300A12DA
:10016E008A15B8260A128A113030F3007308F0008F
:10017E0000300A128A15B8260A128A113030F3009E
:10018E007308F00000300A128A15B8260A128A1176
:10019E003830F3007308F00000300A128A15B826C2
:1001AE000A128A110C30F3007308F00000300A12A4
:1001BE008A15B8260A128A11F001F00A00300A12C6
:1001CE008A15B8260A128A110630F3007308F00059
:1001DE0000300A128A15B8260A128A110230F3006C
:1001EE007308F00000300A128A15B8260A128A1116
:1001FE000630F4003030F300F30B0329F40B03291F
:10020E0000000800730803191129720871047004A4
:10021E00031D24290030F0000030F1000030F20000
:10022E0008000130F5007508F30701300310F20CD9
:10023E00F10CF00CFF3E031D1D29FE307205031953
:10024E003F2918290130F5007508F3070130F00732
:10025E00003003180130F107003003180130F207A7
:10026E0001300310F20CF10CF00CFF3E031D382987
:10027E00FF30720503194E2929290130F30201308E
:10028E000310F00DF10DF20DFF3E031D4729F11F76
:10029E00442973185829FF30F0057F30F105FF30DF
:1002AE00F2050310F30C7308F500F601F701103098
:1002BE000310F50DF60DF70DFF3E031D5F297508B2
:1002CE00F0047608F1047708F204740803190800A4
:1002DE00F217080007308312031392000C309D00B2
:1002EE002608F0002708F1000030F11BFF30F20065
:1002FE00F3000030F7000130F600E830F50048302A
:10030E00F4000A128A1155230A128A117008FF3E50
:10031E008316031392001930F6000030F70012080E
:10032E00013EF000003003180130F1008312031378
:10033E002908F301F3072808F201F2070A128A15B9
:10034E00EE260A128A117108F901F9077008F801F0
:10035E00F8070A128A15A3270A128A117708FD01D7
:10036E00FD077608FC01FC070430F6000030F700AC
:10037E007D08F901F9077C08F801F8070A128A15B9
:10038E00A3270A128A117608831203139B007C0896
:10039E000339FB0004300310FB0DFF3E031DD22971
:1003AE001D08CF397B049D0008000730831203130C
:1003BE0092000C3097002608F0002708F10000305C
:1003CE00F11BFF30F200F3000030F7000130F600B1
:1003DE00E830F5004830F4000A128A1155230A124B
:1003EE008A117008FF3E8316031392001930F6002F
:1003FE000030F7001208013EF00000300318013003
:10040E00F100831203132908F301F3072808F20100
:10041E00F2070A128A15EE260A128A117108F901DC
:10042E00F9077008F801F8070A128A15A3270A12AD
:10043E008A117708FD01FD077608FC01FC070430E0
:10044E00F6000030F7007D08F901F9077C08F80185
:10045E00F8070A128A15A3270A128A117608831240
:10046E00031395007C080339FB0004300310FB0DC9
:10047E00FF3E031D3D2A1708CF397B049700080065
:10048E0083120313AE005030AB002B08AD00AE1F2D
:10049E00612A06168612FF30AB002B08F0002E08DC
:1004AE000A128A15A7260A128A1183120313AC00A8
:1004BE002C08712A2E08803A7F3E031C692A0612E8
:1004CE0086166E2AAE08031D722A061286122E0892
:1004DE00AB002B08AF002F082D0203187A2A2D0827
:1004EE00AB002B08AF00E830A6000330A7002F08A2
:1004FE00AB00AC012B08A8002C08A9000A128A1127
:10050E0071210A128A1183120313AA1F9F2A06153C
:10051E008611FF30AB002B08F0002A080A128A154C
:10052E00A7260A128A1183120313AC002C08AF2AD5
:10053E002A08803A7F3E031CA72A06118615AC2A8C
:10054E00AA08031DB02A061186112A08AB002B0833
:10055E00AF002F082D020318B82A2D08AB002B0868
:10056E00AF00E830A6000330A7002F08AB00AC01A7
:10057E002B08A8002C08A9000A128A11DC210800F9
:10058E00831203133D08C1003E08C2003F08C3009A
:10059E000310420D430DC4004408CA00CA08031DCF
:1005AE00E12A0030C0000030BF000030BE00003035
:1005BE00BD0008003D08C1003E08C2003F08C30050
:1005CE0017300310C30CC20CC10CFF3E031DE82AEA
:1005DE004108C4004408C500BE17FF30BD05FF30FA
:1005EE00BE050030BF053D08C6003E08C7003F08E7
:1005FE00C800C9018E30CA02CA1F232B4A08803A8E
:10060E008F3E0318132B0030C0000030BF000030A7
:10061E00BE000030BD00080001300310C90CC80C2C
:10062E00C70CC60CFF3E031D142B0130C100410840
:10063E00CA0703193E2B132B18304A02031C3B2BFF
:10064E000030C0000030BF000030BE000030BD00E2
:10065E0008000130C1000310C60DC70DC80DC90D2D
:10066E00C10B322B0130CA02CA08031D302B4508BC
:10067E0003194C2BC609C709C809C909C60A0319AB
:10068E00C70A0319C80A0319C90A4908C00048084D
:10069E00BF004708BE004608BD00080083120313C2
:1006AE00A101F31F672BF009F109F209F309F00A12
:1006BE000319F10A0319F20A0319F30AA101A10A97
:1006CE00F71F782BF409F509F609F709F40A03194F
:1006DE00F50A0319F60A0319F70A0130F80078082B
:1006EE00A1060030A5000030A4000030A3000030A9
:1006FE00A20073087204710470040319CD2BA001BB
:10070E00A00AF31B982B0130F8000310F00DF10D29
:10071E00F20DF30DF80B8C2B0130F8007808A007C2
:10072E00882B0130F8000310A20DA30DA40DA50D0A
:10073E00F80B9A2B73087702031DAF2B7208760203
:10074E00031DAF2B71087502031DAF2B70087402C9
:10075E00031CC02B7008F4027108031C710FF50204
:10076E007208031C720FF6027308031C730FF70254
:10077E00221401300310F30CF20CF10CF00CFF3EBE
:10078E00031DC12B0130A002031D982B2108031954
:10079E00DB2BA209A309A409A509A20A0319A30A1E
:1007AE000319A40A0319A50A2508F3002408F20068
:1007BE002308F1002208F000080083120313230817
:1007CE00A6002408A7002508A8000310270D280D51
:1007DE00A9002908AE00AE08031DFC2B0030A000B6
:1007EE000030A1000030A20008002008A600210859
:1007FE00A7002208A8000310270D280DA90029081C
:10080E00AF00AF08031D122C0030A0000030A10075
:10081E000030A20008000030AB000030AC00003009
:10082E00AD0089302F07A6002608AE022308A600C9
:10083E002408A7002508A80010300310A80CA70C48
:10084E00A60CFF3E031D242C2608A9002908AF0084
:10085E002008A6002108A7002208A80010300310C7
:10086E00A80CA70CA60CFF3E031D362C2608A900CB
:10087E002908AF068030A6002608AF05A417FF3062
:10088E00A305FF30A4050030A505A117FF30A00574
:10089E00FF30A1050030A2051830A6002608AA00D8
:1008AE0001300310AB0DAC0DAD0DFF3E031D582CEA
:1008BE0022082502031D692C21082402031D692C20
:1008CE0020082302031C762C2008A3022108031CF7
:1008DE00210FA4022208031C220AA5022B140130A8
:1008EE000310A30DA40DA50DFF3E031D772C0130A3
:1008FE00AA02031D572C2B08F0002C08F1002D081E
:10090E00F2002E08A6002608F3002F08A7002708DD
:10091E00F4000A128A110921700883120313A00031
:10092E007108A1007208A20008008316031398161E
:10093E0018138312031318131816981700304E024B
:10094E00031DB32C00304D02031DB32C23304C027B
:10095E00031DB32C29304B02031C182D83160313D1
:10096E001815243083120313A300F430A4004A3068
:10097E00A5004E08FB004D08FA004C08F9004B0884
:10098E00F8000A128A1511270A128A1178088312A2
:10099E000313A0007908A1007A08A2000A128A1196
:1009AE00E4230A128A11831203132008CF002108B0
:1009BE00D0002208D1004F08A3005008A40051080F
:1009CE00A5000030A0008030A1004130A2000A1224
:1009DE008A11E4230A128A11831203132008B3002A
:1009EE002108B4002208B5000030B0000030B1007C
:1009FE00BF30B2000A128A118C250A128A11831294
:100A0E0003133008BD003108BE003208BF000A12C1
:100A1E008A11C722831203133D088316031399000C
:100A2E000800003083124E02031D272D00304D02A8
:100A3E00031D272D23304C02031D272D28304B027A
:100A4E00031808008316031318112430831203139E
:100A5E00A300F430A4004A30A5004E08FB004D0858
:100A6E00FA004C08F9004B08F8000A128A151127F3
:100A7E000A128A11780883120313A0007908A100C4
:100A8E007A08A2000A128A11E4230A128A1183122A
:100A9E0003132008CF002108D0002208D1004F08F0
:100AAE00A3005008A4005108A5000030A00080301B
:100ABE00A1004230A2000A128A11E4230A128A11FE
:100ACE00831203132008B3002108B4002208B500D6
:100ADE000030B0000030B100BF30B2000A128A11EF
:100AEE008C250A128A11831203133008BD003108B7
:100AFE00BE003208BF000A128A11C72283120313E6
:100B0E003D0883160313990008008312031330085F
:100B1E00B6003108B7003208B8000310370D380D93
:100B2E00B9003908BC003308B6003408B7003508E0
:100B3E00B8000310370D380DB9003908BB003C085A
:100B4E000319B52D3B083C020318BC2D3C03FF3A9C
:100B5E003B07B60019303602031CBC2D3308B0001B
:100B6E003408B1003508B20008003B08031908002C
:100B7E003C083B020318CB2D3B03FF3A3C07B60063
:100B8E0019303602031808000630B6003608BA00CF
:100B9E00B21BBA17B51B3A17B117FF30B005FF30AD
:100BAE00B1050030B205B417FF30B305FF30B40500
:100BBE000030B5053B083C0203180B2E0130031024
:100BCE00B30DB40DB50DFF3E031DE62D0130BB0276
:100BDE003B083C060319062E0130BA023A080739C3
:100BEE000319062EE52D01300310B20CB10CB00C1A
:100BFE00FF3E031DFB2D0130B6003608BC073C0836
:100C0E003B060319342EFA2D3C083B020318342EF2
:100C1E0001300310B00DB10DB20DFF3E031D102EAD
:100C2E000130BC023B083C060319302E0130BA02DB
:100C3E003A0807390319302E0F2E01300310B50C68
:100C4E00B40CB30CFF3E031D252E0130B600360842
:100C5E00BB073C083B06031D242EBA1F462EFF3051
:100C6E00B006FF30B106FF30B2060130B0070030DB
:100C7E0003180130B107003003180130B2073A1FD4
:100C8E00582EFF30B306FF30B406FF30B5060130E4
:100C9E00B307003003180130B407003003180130D9
:100CAE00B507BA013008B307310803110318310A2A
:100CBE00031DB407320803110318320A031DB507CA
:100CCE00B51F7B2EFF30B306FF30B406FF30B506DE
:100CDE000130B307003003180130B4070030031899
:100CEE000130B507BA01BA0A3308F0003408F10032
:100CFE003508F2003C08B6003608F3003A08B70093
:100D0E003708F4000A128A1109217008831203139E
:100D1E00B0007108B1007208B20008000A128A15FC
:100D2E00D2260A128A110A128A11A8200A128A11D0
:100D3E00003083120313CE000030CD002530CC00DE
:100D4E008030CB000A128A119C240A128A1132308A
:100D5E00F0000030F10002300A128A1167200A12E8
:100D6E008A11F001F00A00300A128A15B8260A120A
:100D7E008A11063083120313D3003030D200D20B07
:100D8E00C62ED30BC62E000037300A128A153C270A
:100D9E000A128A11F301F30A02300A128A156A271F
:100DAE000A128A115230A62F0A128A159D260A128D
:100DBE008A110A128A159D260A128A110A128A159A
:100DCE009D260A128A11503083120313D200520844
:100DDE00AA0050300A128A1147220A128A11F30110
:100DEE00F30A01300A128A156A270A128A110A308A
:100DFE000A128A153C270A128A11F301F30A0230ED
:100E0E000A128A156A270A128A114030A62F0A1270
:100E1E008A159D260A128A110A128A159D260A1211
:100E2E008A110A128A159D260A128A11B03083126F
:100E3E000313D2005208AA00B0300A128A114722B8
:100E4E000A128A11F301F30A01300A128A156A276F
:100E5E000A128A110A300A128A153C270A128A11BE
:100E6E00F301F30A02300A128A156A270A128A114E
:100E7E004930A62F0A128A159D260A128A110A12C5
:100E8E008A159D260A128A110A128A159D260A12A1
:100E9E008A11B03083120313D2005208AA005030C8
:100EAE000A128A1147220A128A11F301F30A01303B
:100EBE000A128A156A270A128A1113300A128A1523
:100ECE003C270A128A11F301F30A02300A128A151C
:100EDE006A270A128A112E30A62F0A128A159D260B
:100EEE000A128A110A128A159D260A128A110A12EC
:100EFE008A159D260A128A11503083120313D200CE
:100F0E005208AA00B0300A128A1147220A128A1118
:100F1E00F301F30A01300A128A156A270A128A119E
:100F2E0013300A128A153C270A128A11F301F30AAA
:100F3E0002300A128A156A270A128A1125300A12FD
:100F4E008A153C270A128A110A128A159D260A1240
:100F5E008A1183120313D2005208D4005408463A61
:100F6E000319DB2E831203135408423A03190E2F72
:100F7E00831203135408523A0319412F8312031399
:100F8E0054084C3A0319742F831203135408533A1E
:100F9E00031DAB2F0A128A159D260A128A110A12F8
:100FAE008A159D260A128A1183120313AA01003094
:100FBE000A128A1147220A128A11F301F30A01302A
:100FCE000A128A156A270A128A1101300A128A1524
:100FDE003C270A128A11F301F30A02300A128A150B
:100FEE006A270A128A111C30A62F83010A128A114F
:020FFE00952E2E
:101D3A0083120313981CA32E181218168C1EA32E96
:101D4A001A080800F300F201731CAF2E7008F100A4
:101D5A007108F2070310F00D0310F30CF308031DCA
:101D6A00A92E72080800F200721CBF2E83120313F8
:101D7A000617C22E8312031306137008880009156A
:101D8A00C62EC72E831203130911CB2ECC2E1A305E
:101D9A00F100F10BCE2E00000800831603130F1773
:101DAA008F160F16831603178801890183120313EE
:101DBA00850186018701880189013830831603135A
:101DCA00850003308600803087008801033089004F
:101DDA000800F401F501701CF82E7208F4070318C4
:101DEA00F50A7308F50701300310F20DF30DFF3EF3
:101DFA00031DF92E01300310F10CF00CFF3E031DF8
:101E0A00002F71087004031DF02E7508F101F10707
:101E1A007408F001F00708008E30FC007C08FD0011
:101E2A00FF307B050319272F01300310FB0CFA0C36
:101E3A00F90CF80CFF3E031D1A2F0130FC007C0838
:101E4A00FD07152F7808F0007908F1007A08F200EA
:101E5A007D08FC007C08F300F4010A128A110921AA
:101E6A007008F8007108F9007208FA000800F40016
:101E7A00740884000A128A1103200A128A15F300D0
:101E8A0020307302031C0800740884000A128A11A5
:101E9A0003200A128A15F3007F3073020318080020
:101EAA00740884000A128A1103200A128A15F300A0
:101EBA007308F00001300A128A15B8260A128A1528
:101ECA000130F3007308F4073D2FF500942F7308CF
:101EDA007F3EF4007408F00000300A128A15B82612
:101EEA0008007308BF3EF4007408F00000300A12BC
:101EFA008A15B82608007308933EF4007408F000A7
:101F0A0000300A128A15B82608007308D33EF40076
:101F1A007408F00000300A128A15B82608007508FD
:101F2A00013A03196C2F033A0319762F013A031960
:101F3A00802F073A03198A2FA22F0800831203134E
:101F4A00A101F71FAF2FF609F709F60A0319F70AD5
:101F5A00A101A10AF91FBA2FF809F909F80A031908
:101F6A00F90A0130FA007A08A106A201A30177084A
:101F7A0076040319F12FA001A00AF71BD02F013014
:101F8A000310F60DF70DFF3E031DC52F0130FA00B1
:101F9A007A08A007C22F01300310A20DA30DFF3E3D
:101FAA00031DD12F77087902031DDD2F76087802E9
:101FBA00031CE62F7608F8027708031CF903F902D6
:101FCA00221401300310F70CF60CFF3E031DE72F15
:101FDA000130A002031DD02F21080319F92FA209ED
:101FEA00A309A20A0319A30A2308F701F70722087B
:061FFA00F601F6070800E5
:02400E00E4E0EC
:00000001FF
